:020000040800F2
:10000000000002202117000821160008231600080E
:100010002516000827160008291600080000000011
:100020000000000000000000000000002B16000887
:100030002D160008000000002F16000831160008D9
:100040007117000871170008711700087117000870
:100050007117000871170008711700087117000860
:100060007117000871170008711700087117000850
:100070007117000871170008711700087117000840
:100080007117000871170008711700087117000830
:100090007117000871170008711700087117000820
:1000A0007117000871170008711700087117000810
:1000B0007117000871170008711700087117000800
:1000C00071170008711700087117000871170008F0
:1000D00071170008711700087117000871170008E0
:1000E00071170008711700087117000871170008D0
:1000F00071170008711700087117000871170008C0
:1001000071170008711700087117000871170008AF
:10011000711700087117000871170008711700089F
:10012000711700087117000871170008711700088F
:10013000711700080000000000000000711700089F
:10014000711700087117000871170008711700086F
:10015000711700087117000871170008711700085F
:10016000711700087117000871170008711700084F
:1001700071170008711700087117000800000000CF
:1001800000000000711700080000000000000000DF
:10019000711700080000000000000000711700083F
:1001A00000000000000000000000000071170008BF
:1001B00071170008711700087117000871170008FF
:0401C00071170008AB
:1001D00010B5054C237833B9044B13B10448AFF381
:1001E00000800123237010BDD40100200000000016
:1001F0002850000808B5034B1BB103490348AFF36F
:10020000008008BD00000000D80100202850000830
:1002100001F0FF01102A2BDB10F0070F08D010F8B7
:10022000013B013A8B422DD010F0070F42B3F6D1BB
:10023000F0B441EA012141EA014122F007047FF0D4
:1002400000070023F0E80256083C85EA010586EA2B
:10025000010685FA47F5A3FA87F586FA47F6A5FA67
:1002600087F68EB9EED1F0BC01F0FF0102F0070273
:1002700032B110F8013B013A83EA010313B1F8D11E
:100280000020704701387047002D06BF35460338FF
:10029000073815F0010F07D1013015F4807F02BF38
:1002A000013015F4C03F0130F0BC0138704700BF89
:1002B000034613F8012B002AFBD1181A01387047A6
:1002C00081F0004102E000BF83F0004330B54FEA07
:1002D00041044FEA430594EA050F08BF90EA020F74
:1002E0001FBF54EA000C55EA020C7FEA645C7FEA07
:1002F000655C00F0E2804FEA5454D4EB5555B8BF2A
:100300006D420CDD2C4480EA020281EA030382EA9A
:10031000000083EA010180EA020281EA0303362D2C
:1003200088BF30BD11F0004F4FEA01314FF4801CFF
:100330004CEA113102D0404261EB410113F0004F11
:100340004FEA03334CEA133302D0524263EB4303C8
:1003500094EA050F00F0A780A4F10104D5F1200E66
:100360000DDB02FA0EFC22FA05F2801841F10001C1
:1003700003FA0EF2801843FA05F359410EE0A5F195
:1003800020050EF1200E012A03FA0EFC28BF4CF0C6
:10039000020C43FA05F3C01851EBE37101F000457C
:1003A00007D54FF0000EDCF1000C7EEB00006EEB89
:1003B0000101B1F5801F1BD3B1F5001F0CD3490813
:1003C0005FEA30004FEA3C0C04F101044FEA44526A
:1003D00012F5800F80F09A80BCF1004F08BF5FEAF1
:1003E000500C50F1000041EB045141EA050130BDD1
:1003F0005FEA4C0C404141EB0101013C28BFB1F5E3
:10040000801FE9D291F0000F04BF01460020B1FA2D
:1004100081F308BF2033A3F10B03B3F120020CDA00
:100420000C3208DD02F1140CC2F10C0201FA0CF0DE
:1004300021FA02F10CE002F11402D8BFC2F1200C43
:1004400001FA02F120FA0CFCDCBF41EA0C019040F9
:10045000E41AA2BF01EB0451294330BD6FEA040442
:100460001F3C1CDA0C340EDC04F11404C4F120022D
:1004700020FA04F001FA02F340EA030021FA04F33F
:1004800045EA030130BDC4F10C04C4F1200220FA96
:1004900002F001FA04F340EA0300294630BD21FAD4
:1004A00004F0294630BD94F0000F83F4801306BF9A
:1004B00081F480110134013D4EE77FEA645C18BF8E
:1004C0007FEA655C29D094EA050F08BF90EA020F25
:1004D00005D054EA000C04BF1946104630BD91EA1D
:1004E000030F1EBF0021002030BD5FEA545C05D120
:1004F0004000494128BF41F0004130BD14F580045F
:100500003CBF01F5801130BD01F0004545F0FE41D2
:1005100041F470014FF0000030BD7FEA645C1ABF07
:10052000194610467FEA655C1CBF0B46024650EA3E
:10053000013406BF52EA033591EA030F41F400216A
:1005400030BD00BF90F0000F04BF0021704730B5F0
:100550004FF4806404F132044FF000054FF00001C5
:1005600050E700BF90F0000F04BF0021704730B586
:100570004FF4806404F1320410F0004548BF40425B
:100580004FF000013EE700BF42004FEAE2014FEAB0
:1005900031014FEA02701FBF12F07F4393F07F4F8B
:1005A00081F06051704732F07F4208BF704793F08E
:1005B0007F4F04BF41F40021704730B54FF46074A1
:1005C00001F0004521F000411CE700BF50EA0102A4
:1005D00008BF704730B54FF000050AE050EA01024D
:1005E00008BF704730B511F0004502D5404261EBBD
:1005F00041014FF4806404F132045FEA915C3FF4FE
:10060000D8AE4FF003025FEADC0C18BF03325FEA9A
:10061000DC0C18BF033202EBDC02C2F1200300FA4B
:1006200003FC20FA02F001FA03FE40EA0E0021FA70
:1006300002F11444BDE600BF70B54FF0FF0C4CF45E
:10064000E06C1CEA11541DBF1CEA135594EA0C0F10
:1006500095EA0C0F00F0DEF82C4481EA030621EA4B
:100660004C5123EA4C5350EA013518BF52EA033586
:1006700041F4801143F4801338D0A0FB02CE4FF038
:100680000005E1FB02E506F00042E0FB03E54FF068
:100690000006E1FB03569CF0000F18BF4EF0010E60
:1006A000A4F1FF04B6F5007F64F5407404D25FEA5C
:1006B0004E0E6D4146EB060642EAC62141EA55510F
:1006C0004FEAC52040EA5E504FEACE2EB4F1FD0C51
:1006D00088BFBCF5E06F1ED8BEF1004F08BF5FEACF
:1006E000500E50F1000041EB045170BD06F0004681
:1006F00046EA010140EA020081EA0301B4EB5C042E
:10070000C2BFD4EB0C0541EA045170BD41F4801125
:100710004FF0000E013C00F3AB8014F1360FDEBF4A
:10072000002001F0004170BDC4F10004203C35DA26
:100730000C341BDC04F11404C4F1200500FA05F3A9
:1007400020FA04F001FA05F240EA020001F000424A
:1007500021F0004110EBD37021FA04F642EB0601C0
:100760005EEA430E08BF20EAD37070BDC4F10C04EA
:10077000C4F1200500FA04F320FA05F001FA04F2AE
:1007800040EA020001F0004110EBD37041F100019A
:100790005EEA430E08BF20EAD37070BDC4F12005A5
:1007A00000FA05F24EEA020E20FA04F301FA05F20D
:1007B00043EA020321FA04F001F0004121FA04F2B5
:1007C00020EA020000EBD3705EEA430E08BF20EA85
:1007D000D37070BD94F0000F0FD101F000464000BF
:1007E00041EB010111F4801F08BF013CF7D041EA41
:1007F000060195F0000F18BF704703F00046520045
:1008000043EB030313F4801F08BF013DF7D043EA15
:100810000603704794EA0C0F0CEA135518BF95EACB
:100820000C0F0CD050EA410618BF52EA4306D1D152
:1008300081EA030101F000414FF0000070BD50EA71
:10084000410606BF1046194652EA430619D094EAFB
:100850000C0F02D150EA013613D195EA0C0F05D1E5
:1008600052EA03361CBF104619460AD181EA030139
:1008700001F0004141F0FE4141F470014FF00000F1
:1008800070BD41F0FE4141F4780170BD70B54FF08C
:10089000FF0C4CF4E06C1CEA11541DBF1CEA13550C
:1008A00094EA0C0F95EA0C0F00F0A7F8A4EB0504EE
:1008B00081EA030E52EA03354FEA013100F08880E5
:1008C0004FEA03334FF0805545EA131343EA1263AE
:1008D0004FEA022245EA111545EA10654FEA002663
:1008E0000EF000419D4208BF964244F1FD0404F51C
:1008F000407402D25B084FEA3202B61A65EB030578
:100900005B084FEA32024FF480104FF4002CB6EB34
:10091000020E75EB030E22BFB61A754640EA0C00B4
:100920005B084FEA3202B6EB020E75EB030E22BFF4
:10093000B61A754640EA5C005B084FEA3202B6EB35
:10094000020E75EB030E22BFB61A754640EA9C00F4
:100950005B084FEA3202B6EB020E75EB030E22BFC4
:10096000B61A754640EADC0055EA060E18D04FEA82
:10097000051545EA16754FEA06164FEAC30343EA22
:1009800052734FEAC2025FEA1C1CC0D111F4801FEF
:100990000BD141EA00014FF000004FF0004CB6E7E8
:1009A00011F4801F04BF01430020B4F1FD0C88BF87
:1009B000BCF5E06F3FF6AFAEB5EB030C04BFB6EB92
:1009C000020C5FEA500C50F1000041EB045170BD85
:1009D0000EF0004E4EEA113114EB5C04C2BFD4EBB2
:1009E0000C0541EA045170BD41F480114FF0000E36
:1009F000013C90E645EA060E8DE60CEA135594EAB2
:100A00000C0F08BF95EA0C0F3FF43BAF94EA0C0FB4
:100A10000AD150EA01347FF434AF95EA0C0F7FF429
:100A200025AF104619462CE795EA0C0F06D152EA7D
:100A300003353FF4FDAE1046194622E750EA410661
:100A400018BF52EA43067FF4C5AE50EA41047FF472
:100A50000DAF52EA43057FF4EBAE12E74FF0FF3CD7
:100A600006E000BF4FF0010C02E000BF4FF0010CA8
:100A70004DF804CD4FEA410C7FEA6C5C4FEA430C21
:100A800018BF7FEA6C5C1BD001B050EA410C0CBF70
:100A900052EA430C91EA030F02BF90EA020F0020D2
:100AA000704710F1000F91EA030F58BF994208BF39
:100AB00090422CBFD8176FEAE37040F001007047F6
:100AC0004FEA410C7FEA6C5C02D150EA013C07D14D
:100AD0004FEA430C7FEA6C5CD6D152EA033CD3D098
:100AE0005DF8040B704700BF8446104662468C4692
:100AF0001946634600E000BF01B5FFF7B7FF0028C5
:100B000048BF10F1000F01BD4DF808EDFFF7F4FFED
:100B10000CBF012000205DF808FB00BF4DF808ED78
:100B2000FFF7EAFF34BF012000205DF808FB00BF9B
:100B30004DF808EDFFF7E0FF94BF012000205DF8BD
:100B400008FB00BF4DF808EDFFF7CEFF94BF012072
:100B500000205DF808FB00BF4DF808EDFFF7C4FF6B
:100B600034BF012000205DF808FB00BF4FEA410CB4
:100B70007FEA6C5C02D150EA013C0AD14FEA430C97
:100B80007FEA6C5C02D152EA033C02D14FF00000D4
:100B900070474FF0010070474FEA410212F5001212
:100BA00015D211D56FF47873B3EB625212D94FEAB4
:100BB000C12343F0004343EA505311F0004F23FA9E
:100BC00002F018BF404270474FF00000704750EAF3
:100BD000013005D111F0004008BF6FF000407047B0
:100BE0004FF00000704700BF53B94AB9002908BF51
:100BF00000281CBF4FF0FF314FF0FF3000F06AB902
:100C0000ADF1080C6DE904CE00F006F8DDF804E063
:100C1000DDE9022304B070472DE9F047089D0C463A
:100C2000002B4ED194468C458646B2FA82F262D9A8
:100C30004AB1C2F12003914020FA03F30CFA02FCFE
:100C4000194300FA02FE4FEA1C471FFA8CF6B1FB6B
:100C5000F7F44FEA1E4307FB141143EA014304FB78
:100C600006F199420AD91CEB030304F1FF3080F02E
:100C70001281994240F20F81023C6344591A1FFAD3
:100C80008EF3B1FBF7F007FB101143EA014300FBC1
:100C900006F69E420AD91CEB030300F1FF3180F0F7
:100CA000FC809E4240F2F980634402389B1B40EA7C
:100CB000044000211DB1D3400022C5E90032BDE847
:100CC000F0878B4205D90DB1C5E900010021084626
:100CD000F5E7B3FA83F1002946D1A34202D390424B
:100CE000C0F0F080861A64EB03030120002DE6D0EB
:100CF000C5E90063E3E7002A40F09080A1EB0C0413
:100D00004FEA1C481FFA8CF70121B4FBF8F64FEAB2
:100D10001E4308FB164443EA044307FB06F09842CF
:100D200008D91CEB030306F1FF3402D2984200F20B
:100D3000CD8026461C1A1FFA8EF3B4FBF8F008FB90
:100D4000104443EA044300FB07F79F4208D91CEB19
:100D5000030300F1FF3402D29F4200F2B08020462C
:100D6000DB1B40EA0640A5E7C1F120068B4022FAD2
:100D700006F71F4320FA06FC04FA01F343EA0C03CA
:100D8000F44000FA01F8380C4FEA1349B4FBF0FEC6
:100D90001FFA87FC00FB1E4449EA04440EFB0CF9D1
:100DA000A14502FA01F20AD93C190EF1FF3A80F08E
:100DB0008480A14540F28180AEF1020E3C44A4EB58
:100DC00009041FFA83F9B4FBF0F300FB134449EA6A
:100DD000044403FB0CFCA44507D93C1903F1FF3084
:100DE00067D2A44565D9023B3C4443EA0E40A0FBD0
:100DF0000293A4EB0C049C42CE469C4651D34ED0A9
:100E000055B1B8EB0E0364EB0C0404FA06F6CB40C4
:100E10001E43CC40C5E90064002150E7C2F1200325
:100E200020FA03F10CFA02FC24FA03F394400C4379
:100E30004FEA1C4800FA02FE1FFA8CF7B3FBF8F0E9
:100E400008FB1031230C43EA014300FB07F19942F0
:100E500008D91CEB030300F1FF362CD299422AD9A2
:100E6000023863445B1AA4B2B3FBF8F108FB1133F8
:100E700044EA034401FB07F3A34208D91CEB040432
:100E800001F1FF3613D2A34211D902396444E41AA6
:100E900041EA004139E70446F0E6084606E7C8455E
:100EA000AED2B9EB020E63EB070C0138A8E731466E
:100EB000EDE7034699E73046D4E7D6467FE763443B
:100EC00002384DE70646234608460FE7023E6344D4
:100ED00030E700BF704700BF07B5A5238DF8043089
:100EE0008DF805004FF0FF33022201A9024801F0FE
:100EF00078FB03B05DF804FBF0010020F7B50D4F5F
:100F00000446461815460020B4420AD1094B1A6817
:100F1000936843F001039360431B5842584103B068
:100F2000F0BD14F8013B0193012201A9384600F0FD
:100F3000D9FCE9E73802002007B57F238DF8073098
:100F400001224FF0FF330DF10701034801F049FB87
:100F500003B05DF804FB00BFF001002007B50023DB
:100F600001208DF80730FFF7B7FF01224FF0FF3364
:100F70000DF1070103488DF8072001F032FB03B0A3
:100F80005DF804FBF00100201FB50A4A10685168A3
:100F900001AB03C3906818600C20FFF79DFF4FF072
:100FA000FF330C2201A9044801F01BFB05B05DF8DA
:100FB00004FB00BF40500008F001002007B50A4BB9
:100FC0001B680220C3F30B03ADF80630FFF784FF64
:100FD0004FF0FF3302220DF10601044801F001FB3E
:100FE00003B05DF804FB00BF002004E0F001002026
:100FF00007B5094B1B6801201B0A8DF80730FFF766
:101000006BFF4FF0FF3301220DF10701034801F0A0
:10101000E8FA03B05DF804FB00C0FF1FF0010020F8
:1010200013B504460120FFF757FFD4F8024004F13E
:101030007843B3F5002F1DD304F16043B3F5003FAF
:101040008CBFA0239F238DF807300B484FF0FF3350
:1010500001220DF1070101F0C4FA9DF807309F2B22
:1010600006D1064B1B6883F3088844F00104A047AF
:1010700002B010BD9F23E6E7F001002000800008C9
:1010800070B588B08478C678002501208DF80750A7
:10109000FFF722FF1A480122202100F0DFFEFF2C7B
:1010A0001FD101230393012304930223079300F02C
:1010B000ABFC02A903A800F0A9FD00F0B7FC0023D7
:1010C0008DF807300DF107014FF0FF3301220D4875
:1010D00001F087FA0A480022202100F0BFFE08B084
:1010E00070BD631E052B09D80594C4F10804E4B251
:1010F0000395B44294BF06940696D4E70123DFE734
:1011000000000240F00100202DE9F341D0F8026018
:1011100006F17848B8F5002F054627D306F160435D
:10112000B3F5003F8CBFA0279F27002401208DF836
:101130000740FFF7D1FE9F2F2DD1B8F5002F15F8EE
:10114000067F23D200F060FC3744BE4210D100F08D
:101150006DFC4FF0FF3301220DF107010F488DF8B0
:10116000074001F03EFA02B0BDE8F0819F27DCE7BE
:101170000023314615F8012F184600F0A5FC013672
:101180000446E2E715F8013F33550134E3B29F42CC
:10119000F8D80024DDE70124DBE700BFF0010020E0
:1011A00010B504464FF0FF3000F066FC00F048FC3C
:1011B0000020FFF791FE064AFF235375A178E378DC
:1011C00023EA01039375BDE8104000F04BBC00BF5B
:1011D000003C024070B50024C0B0867900942146DE
:1011E0000546FB2201A801F0FEFF3046AD78FFF76F
:1011F00073FE6B462146CAB2964208D84FF0FF33C1
:1012000072006946044801F0ECF940B070BD4A5DD7
:1012100003F8012B0131EEE7F001002007B54FF094
:10122000FF3000F029FC00F00BFC0120FFF754FE1A
:1012300000238DF80730074B9B7D00F013FC4FF027
:10124000FF3301220DF10701034801F0CAF903B091
:101250005DF804FB003C0240F001002013B50023C0
:101260000820CDE90033FFF737FE6A46094B0A49EB
:10127000144613F8010B02F8010B8B42F9D100F070
:10128000F1FB4FF0FF3308222146044801F0A9F991
:1012900002B010BD00C0FF1F08C0FF1FF0010020FA
:1012A00010B54FF0FF3000F0E7FB00F0C9FB064B34
:1012B0000024AA225A759C7500F0D4FB2046BDE894
:1012C0001040FFF709BE00BF003C024010B594B0CB
:1012D0001422002108A801F086FF1422002102A890
:1012E00001F081FF1F4B00220092196C41F08051E8
:1012F00019641B6C1C4903F080530093009B0192FE
:101300000B6823F4404343F480430B600B6803F401
:1013100040430193019B012110234FF4A870CDE9B4
:101320000A130F9304230224CDE9100307A8CDE983
:101330000D42CDE91244079400F098FE08B172B650
:10134000FEE70F23CDE902344FF48053CDE9053099
:101350000490214602A800F087FD08B172B6FEE7AE
:1013600014B010BD003802400070004010B52F4C82
:10137000C0B0FF220021684601F035FF4FF0FF3377
:1013800001226946204601F07AF99DF800204FF0CD
:10139000FF330DF10101204601F071F99DF80010B5
:1013A0004B1CDBB2ADF104020339D258C9B2684616
:1013B000FFF7A4FD012836D19DF80130513B0B2BDE
:1013C000D7D8DFE803F006090C0F13171B1F2327DC
:1013D0002A2DFFF7C3FDCCE7FFF7D6FDC9E7FFF7DE
:1013E000EDFDC6E76846FFF703FEC2E76846FFF774
:1013F00017FEBEE76846FFF743FEBAE76846FFF709
:1014000083FEB6E76846FFF7CBFEB2E76846FFF714
:10141000E1FEAEE7FFF702FFABE7FFF71FFFA8E72C
:10142000FFF73EFFA5E7FFF787FDA2E7F0010020E9
:10143000024B1A6882F308885B681847008000082E
:1014400030B58BB000F0BAF9FFF740FF142200214D
:101450000DEB020001F0C7FE0024344B01941A6B1F
:10146000334842F004021A631A6B02F0040201923C
:10147000019A02941A6B42F080021A631A6B02F00E
:1014800080020292029A03941A6B42F001021A63DC
:101490001A6B02F001020392039A04941A6B42F051
:1014A00002021A631B6B03F00203224604932021FD
:1014B000049B4FF4005500F0D1FC1E48079405A989
:1014C000CDE9055400F0F2FB01232020CDE905030E
:1014D00005A91748CDE9074400F0E8FB1648174B6B
:1014E000036000F0EFF9034608B172B6FEE7144856
:1014F000144903614FF4E132C0E900120C22C0E943
:101500000233C0E90523C36101F03CF8044608B189
:1015100072B6FEE70748294600F09AFC08B9FFF7C3
:1015200025FFFFF785FF20460BB030BD0038024095
:101530000000024000080240380200200030024053
:10154000F00100200044004082B00D4B00210091CA
:101550005A6C42F480425A645A6C02F480420092FF
:10156000009A01911A6C42F080521A641B6C03F0CD
:1015700080530193019B072002B000F04BB900BFDC
:10158000003802400268094B9A4282B00BD1002316
:101590000193074B1A6B42F480521A631B6B03F4DE
:1015A00080530193019B02B0704700BF003002409E
:1015B0000038024010B5044688B01422002103A868
:1015C00001F011FE2268144B9A4222D103F5FA333E
:1015D000002101911A6C114842F400321A641A6C0D
:1015E00002F400320192019A02911A6B42F0010258
:1015F0001A631B6B03F001030293029B0C2202236C
:101600000321CDE903230723CDE9061303A900F045
:101610004DFB08B010BD00BF004400400000024078
:10162000FEE7FEE7FEE7FEE7FEE77047704770471C
:1016300000F0DEB84FF0E022D2F8FC3D43F08073BA
:10164000C2F8FC3D4FF06043D3F8002E42F0010297
:10165000C3F8002E1A68D207FCD518607047012025
:10166000704708B501F012FE162303604FF0FF30FB
:1016700008BD08B501F00AFE16230360FEE770B549
:101680000D4614460E46731B9C4201DC204670BD7D
:10169000AFF3008006F8010BF5E738B514460D46A8
:1016A0006B1A9C4201DC204638BD15F8010BFFF790
:1016B000C1FFF5E74FF0FF3070474FF400534B6028
:1016C0000020704701207047002070470B4A1168C6
:1016D00010B5034609B90A491160106809490A4C56
:1016E0000344091B8B4206D901F0D0FD0C23036093
:1016F0004FF0FF3010BD1360FCE700BF4002002038
:10170000B80300200000022000040000034AD2F8C1
:10171000883043F47003C2F88830704700ED00E071
:10172000DFF834D0FFF7F2FF0C480D490D4A0023D3
:1017300002E0D458C4500433C4188C42F9D30A4A86
:101740000A4C002301E013600432A242FBD301F0F3
:10175000A3FDFFF775FE7047000002200000002087
:10176000D4010020E8530008D4010020B403002075
:10177000FEE7000038B50E4B1A784FF47A73B3FBCE
:10178000F2F30C4A05461068B0FBF3F000F086F85F
:10179000044658B90F2D09D8024629464FF0FF30AC
:1017A00000F04AF8044B20461D6038BD0120FCE7DC
:1017B00004000020000000200800002008B50B4BAA
:1017C0001A6842F400721A601A6842F480621A6061
:1017D0001A6842F480721A60032000F01BF800209F
:1017E000FFF7C8FFFFF7B0FE002008BD003C024035
:1017F000034A044B11681B780B441360704700BF09
:101800004402002004000020014B1868704700BF0C
:10181000440200200749CA6822F4E062030212046D
:1018200003F4E063120C134343F0BF6343F400334B
:10183000CB60704700ED00E0164B30B5DC68C4F3B8
:101840000224C4F10703251D042B28BF0423062D01
:101850004FF0FF358CBF033C002405FA03F321EA67
:101860000303A54022EA0502A340002843EA02033D
:10187000ACBF00F16040084A4FEA0313B8BF00F064
:101880000F00DBB2AABF00F56140135480F80033AB
:1018900030BD00BF00ED00E014ED00E00138B0F114
:1018A000807F0BD24FF0E023054A5861F02182F887
:1018B00023100020072298611A61704701207047A9
:1018C00000ED00E010B5044650B1437903F0FF028B
:1018D00013B90271FFF756FE01236371002010BD9A
:1018E0000120FCE710B5034602205871186801EB8F
:1018F0008202914203D1012200685A7110BD51F851
:10190000044B0460F5E70000094910B50C6924F4A4
:1019100040740C610C6944F440740C610C6944F02F
:1019200001040C610260BFF36F8F436010BD00BF04
:10193000003C0240074B1A6922F440721A611A698E
:1019400042F400721A611A6942F001021A610160E0
:10195000704700BF003C0240074B1A6922F44072F6
:101960001A611A6942F480721A611A6942F001021E
:101970001A610180704700BF003C0240204BDA68CA
:10198000D00606D51F49CA6942F01002CA6110226A
:10199000DA60DA68910606D51A49CA6942F0080287
:1019A000CA612022DA60164BDA68520606D515495C
:1019B000CA6942F00402CA614022DA60DA6810069D
:1019C00006D51049CA6942F00202CA618022DA6073
:1019D0000B4BDA68D10507D50A49CA6942F0010202
:1019E000CA614FF48072DA60DA68920706D5054959
:1019F000CA6942F02002CA610222DA60704700BF61
:101A0000003C024048020020064B1A69002ABFBF72
:101A1000054A5A6002F188325A60BABF1869C00F8D
:101A200000207047003C024023016745034A1369C8
:101A300043F0004313610020704700BF003C0240A8
:101A4000064B5A69D20741BF054A9A6002F14432F7
:101A500000204CBF9A600120704700BF003C02404C
:101A60003B2A1908034A536943F0010353610020DC
:101A7000704700BF003C0240114B70B50022044685
:101A8000DA61FFF7C1FE0F4D0646EB68DA030CD4AE
:101A9000EB68DB0744BF0123EB60E86810F4F970E2
:101AA00007D0FFF76BFF012003E0611CEDD00CB9FC
:101AB000032070BDFFF7A8FE801BA042E5D9F7E721
:101AC00048020020003C02402DE9F0411F4E98469C
:101AD000337E012B07460D46144635D001234CF2C8
:101AE00050303376FFF7C8FFB0B9CFB9184B1A6939
:101AF00022F440721A611A691A611A69E4B242F05A
:101B000001021A612C704CF25030FFF7B5FF104AF9
:101B1000136923F00103136100233376BDE8F081DC
:101B2000012F04D1A1B22846FFF716FFEBE7022FE1
:101B300004D121462846FFF7FDFEE4E7224643464E
:101B40002846FFF7E1FEDEE70220E7E74802002033
:101B5000003C0240074B1A6922F440721A611A696C
:101B600042F004021A611A6942EA002242F4803209
:101B70001A617047003C02400D4B1A6922F4407212
:101B80001A611A69022994BF09024FF440710A438D
:101B90001A611A6922F0F8021A611A6942EAC00051
:101BA00040F0020018611A6942F480321A617047ED
:101BB000003C0240144B1A6891050FD51A6822F4B4
:101BC00000721A601A6842F400621A601A6822F4FD
:101BD00000621A601A6842F400721A600A4B1A68AE
:101BE00052050FD51A6822F480621A601A6842F40E
:101BF00080521A601A6822F480521A601A6842F4FD
:101C000080621A60704700BF003C02402DE9F84333
:101C1000DFF8948098F81830012B05460F463FD026
:101C200001234CF2503088F81830FFF725FF0446A6
:101C3000A0B94FF0FF333B602B68012B14D1287CF7
:101C4000FFF788FF4CF25030FFF716FF154A136973
:101C500023F0040304461361FFF7ACFF002388F868
:101C600018302046BDE8F883AE68DFF83890D5E933
:101C700002231344B342EFD9297C3046FFF77CFF9F
:101C80004CF25030FFF7F8FED9F8103023F0FA0389
:101C9000C9F8103010B13E600446DDE70136E6E7D2
:101CA0000224DEE7003C0240480200202DE9F74F05
:101CB000DFF89891634A00230D6801249C4004EAF0
:101CC0000506AC4340F0AB804D68032705F00304E4
:101CD0004FEA430807FA08FC671E012F6FEA0C0C55
:101CE00034D8876807EA0C0ECF6807FA08F747EA86
:101CF0000E078760476827EA060EC5F300179F4066
:101D000047EA0E074760C76807EA0C0E8F6807FAB4
:101D100008F747EA0E07022CC76019D14FEAD30A29
:101D200000EB8A0A03F0070BDAF820704FEA8B0BFE
:101D30004FF00F0E0EFA0BFE27EA0E0E0F6907FA90
:101D40000BF747EA0E07CAF8207001E0032CDAD13E
:101D5000076804FA08F407EA0C073C4315F4403F0F
:101D600004605CD000240194D9F8444044F48044D9
:101D7000C9F84440D9F8444023F0030707F18047ED
:101D800004F4804407F59C37019403F0030C019C94
:101D9000D7F808E04FEA8C0C0F2404FA0CF42EEA72
:101DA000040E294CA04241D004F58064A0423FD0EB
:101DB00004F58064A0423DD004F58064A0423BD08D
:101DC00004F58064A04239D004F58064A04237D085
:101DD00004F58064A04214BF0724062404FA0CF41E
:101DE00044EA0E04BC609468F74315F4801F0CBFEE
:101DF0003C4034439460D46815F4001F0CBF3C4051
:101E00003443D460546815F4003F0CBF3C40344365
:101E100054601468ED0354BF3C40344314600133F4
:101E2000102B7FF449AF03B0BDE8F08F0024D5E755
:101E30000124D3E70224D1E70324CFE70424CDE72C
:101E40000524CBE7003C014000000240003802407E
:101E50000369194214BF0120002070470AB1816153
:101E600070470904FBE700002DE9F0410D460446E8
:101E700010B90120BDE8F081434B1A6802F00F024F
:101E80008A4228D321688F072DD4C80740D43E4BFF
:101E90001A6802F00F02AA4265D8226851076BD473
:101EA000130707D5394A2169936823F4604343EA4D
:101EB000C103936000F092F8344B354A9B68C3F33A
:101EC0000313D35CD840334B1860334B1868FFF7CB
:101ED00051FC0020CEE7CAB21A701B6803F00F0352
:101EE0008B42C6D1CEE7294B11F0040F1EBF9A6872
:101EF00042F4E0529A600E0742BF9A6842F4604290
:101F00009A609A68A06822F0F00202439A60BCE7E7
:101F100062681E4B012A1CD11B6813F4003FA8D035
:101F20001A4EB36823F003031343B360FFF76CFC4E
:101F300041F288380746B368626803F00C03B3EBDC
:101F4000820FA4D0FFF760FCC01B4045F3D90320EB
:101F500090E7911E01291B6802D813F0007FDEE78D
:101F600013F0020FDBE7EAB21A701B6803F00F03ED
:101F7000AB427FF47EAF90E70449E0688B6823F4BE
:101F8000E05303438B608BE7003C02400038024083
:101F9000555000080000002008000020044B054AAE
:101FA0009B68C3F38223D35C034A1068D840704710
:101FB000003802404D50000800000020044B054A44
:101FC0009B68C3F34233D35C034A1068D840704720
:101FD000003802404D50000800000020204908B59C
:101FE0008B6803F00C03082B07D00C2B20D01D4866
:101FF0001D4A042B18BF104608BD4A684B68496843
:1020000013F4800314BF17481748C1F3881118BF91
:10201000002302F03F02A1FB0001FEF7E5FD104B9B
:102020005B68C3F3014301335B00B0FBF3F0E3E70C
:102030004A684B68496813F4800314BF09480A488A
:10204000C1F3881118BF002302F03F02A1FB000179
:10205000FEF7CAFD024B5B68C3F30273E5E700BFFE
:102060000038024000127A000024F4002DE9F34108
:102070000446002831D00368DF0710D423689E0788
:1020800067D42368190700F1B28023685A0700F16A
:10209000D280A369002B40F03981002034E0984BB6
:1020A0009A6802F00C02042A10D09A6802F00C021E
:1020B000082A02D15B685D0208D4914B9A6802F04D
:1020C0000C020C2A0BD15A68510208D58C4B1B68A4
:1020D0009A03D3D56368002BD0D1012014E0626845
:1020E000B2F5803F13D11A6842F480321A60FFF7CC
:1020F0008BFB834E054633689B03BFD4FFF784FBFD
:10210000401B6428F7D9032002B0BDE8F0817C4D64
:10211000B2F5A02F2B6807D143F480232B602B68E6
:1021200043F480332B60E2E723F480332B602B6889
:1021300023F480232B60002AD9D1FFF765FB0646E4
:102140002B689F039AD5FFF75FFB801B6428F7D9A4
:10215000D9E76B4B9A6812F00C0F10D09A6802F016
:102160000C02082A02D15B685E0208D5644A9368B3
:1021700003F00C030C2B11D153685D020ED4604A9E
:102180001368990702D5E368012BA6D1136821696A
:1021900023F0F80343EAC103136072E7E268594B86
:1021A000B2B101221A60FFF72FFB554D06462B688E
:1021B0009B0707D52B68226923F0F80343EAC20383
:1021C0002B605EE7FFF720FB801B0228EFD99AE720
:1021D0001A60FFF719FB4A4E054633689F077FF5E3
:1021E00050AFFFF711FB401B0228F6D98BE762695D
:1021F000444B82B10122C3F8802EFFF705FB404E0D
:102200000546736F9B073FF540AFFFF7FDFA401B94
:102210000228F6D977E7C3F8802EFFF7F5FA384E93
:102220000546736F9F077FF530AFFFF7EDFA401B50
:102230000228F6D967E7324B1A6C12F0805228D187
:1022400001921A6C42F080521A641B6C03F08053A6
:102250000193019B01272C4D2B68D8051BD5A36842
:10226000274D012B27D12B6F43F001032B67FFF77D
:10227000CBFA234E054641F28838336F9A0739D599
:10228000002F3FF406AF1E4A136C23F080531364F3
:10229000FFE60027DFE72B6843F480732B60FFF72E
:1022A000B3FA06462B68D905D9D4FFF7ADFA801BDF
:1022B0000228F7D927E7052B04D12B6F43F004033D
:1022C0002B67D0E72A6F22F001022A672A6F22F0DB
:1022D00004022A67002BCAD1FFF796FA41F2883828
:1022E00006462B6F9B07CBD5FFF78EFA801B404528
:1022F000F7D908E7FFF788FA401B4045BDD902E748
:102300000038024000004742007000403C4DAA687F
:1023100002F00C02082A41D0022B3A4B4FF0000287
:102320001A662ED1FFF770FA06462B68990122D45F
:10233000D4E907321343626A43EA8213E26A43EA4A
:102340000263226B43EA0273A26A5208013A43EA2B
:1023500002436B602B4B2A4D01221A66FFF754FA99
:1023600004462B689A013FF598AEFFF74DFA001B23
:102370000228F6D9C7E6FFF747FA801B0228D4D90E
:10238000C1E6FFF741FA04462B689B017FF585AE55
:10239000FFF73AFA001B0228F6D9B4E6012B3FF406
:1023A0009CAE6B68E26903F4800191427FF495AEC4
:1023B000216A03F03F028A427FF48FAE616A47F6DA
:1023C000C0721A40B2EB811F7FF487AEA26A520836
:1023D00003F44031013AB1EB024F7FF47EAEE16A83
:1023E00003F07062B2EB016F7FF477AE226B03F003
:1023F000E043B3EB027F14BF0120002084E600BF5E
:102400000038024000004742026802F10C0353E822
:10241000003F23F490730C3242E800310268002937
:10242000F2D102F1140353E8003F23F0010302F15B
:10243000140C4CE800310029F3D1036B012B0BD1B4
:1024400002F10C0353E8003F23F0100302F10C0CDF
:102450004CE800310029F3D1202380F842300023DA
:10246000036370470268C16838B5136923F44053A9
:102470000B431361054683680069D16803436869AB
:102480000343E86921F4164121F00C0103430B4397
:10249000D3605369A96923F440730B4353611F4B05
:1024A0009A4203D003F580639A4224D1FFF786FD58
:1024B000EA691921B2F5004FD5E90043A0FB0101FB
:1024C0001CD1DA184FF0000545EB0503FEF78CFB35
:1024D0006422B0FBF2F102FB1103DB003233B3FBE9
:1024E000F2F303F007025B0002EB011203F4F8734E
:1024F0001344A36038BDFFF751FDD9E79A009B0F45
:10250000FEF772FB6422B0FBF2F102FB11031B0128
:102510003233B3FBF2F303EB0113EAE7001001409F
:10252000F7B505460C4617461E462A68136834EA76
:10253000030301D1002021E0701CF7D0FFF764F9FC
:10254000C01B86421CD3DEB12B68DA685107ECD57C
:10255000802CEAD0402CE8D01A681207E5D5002478
:1025600001941A6801925B6801932846019BFFF76A
:102570004BFF08236B6485F84040012003B0F0BD99
:102580000320FBE710B5044648B390F8413003F050
:10259000FF021BB980F84020FFF70CF822682423C3
:1025A00084F84130D36823F40053D3602046FFF70A
:1025B00059FF23681A6922F490421A615A6922F07D
:1025C0002A025A61DA6842F40052DA6000202023BD
:1025D000606484F8413084F84230606310BD0120AB
:1025E000FCE72DE9F843984690F84130202B04464B
:1025F0000E4617463FD100293FD0002A3DD0212367
:102600000025456480F84130FFF7FEF8A368A784F1
:10261000B3F5805F8146E78403D123690BB9354662
:102620001E46E38C9BB253B943464A46402120469E
:10263000FFF776FF202350B984F841300AE0434683
:102640004A4680212046FFF76BFF28B1202384F8FB
:1026500041300320BDE8F88322684EB935F8023BCB
:10266000C3F308035360E18C013989B2E184D8E7F0
:1026700016F8013BF6E70220ECE70120EAE72DE936
:10268000F8431F4690F84230202B04460E469146F0
:1026900048D1002948D0002A46D02223002545648D
:1026A00080F842300563FFF7AFF8A368A4F82C90D8
:1026B000B3F5805F8046A4F82E9003D123690BB94F
:1026C00035461E46E08D80B218B9202384F842308A
:1026D0000AE03B46424620212046FFF721FF28B171
:1026E000202384F842300320BDE8F88323684EB9E4
:1026F0005B68C3F3080325F8023BE38D013B9BB203
:10270000E385DFE7A268B2F5805F02D032B92269C3
:1027100022B95968C9B206F8011BEEE7596801F001
:102720007F01F8E70220DFE70120DDE72DE9FF4721
:1027300057EC106B002F0C4619463B46BBBF07F108
:1027400000431F4600232D230B700D9BDDF830A0A6
:10275000914623F02008BCBF32461646B8F1460F1A
:1027600005D0B8F1450F00D10134022100E003216A
:1027700003AB019302AB009347EC106B5346224628
:1027800000F03AFEB8F1470F054619D119F0010FD4
:102790000ED000EB04090022002330463946FEF734
:1027A000B3F908B1CDF80C903022039B4B451ED3F2
:1027B000039B0E9A5B1B2846136004B0BDE8F087AC
:1027C000B8F1460F00EB0409E5D10378302B0AD1AC
:1027D0000022002330463946FEF796F918B9C4F1B5
:1027E0000104CAF80040DAF800309944D3E7591CD4
:1027F00003911A70D9E7F7B50029BABF49422D23D2
:102800002B2309290270437029DD0DF107031D46B2
:102810000A271A46B1FBF7F607FB1614303402F804
:10282000014C0C46632C03F1FF333146F1DC3031AF
:10283000941E03F8011C411C2346AB420AD30DF140
:1028400009039B1AAC4288BF002302330344181AC1
:1028500003B0F0BD13F8016B01F8016FEDE7302311
:1028600030318370C170031DF1E700002DE9F04F96
:102870008DB00C46DDF8588016461F46054600F020
:10288000BBFC036804931846FDF712FD00230A936E
:10289000D8F800300590073323F0070303F108024E
:1028A00094F818A0D4F800B0C8F80020D3E9008943
:1028B00029F000430793CDF81880C4E91289DDE9B7
:1028C00006019C4B4FF0FF32FEF750F970BBDDE97B
:1028D0000601984B4FF0FF32FEF72AF930BB002279
:1028E000002340464946FEF719F910B12D2384F81C
:1028F0004330914A914BBAF1470F94BF90469846A6
:10290000032323612BF0040323604FF00009009799
:1029100033460BAA2146284600F0D2F9013040F098
:102920008D804FF0FF300DB0BDE8F08F42464B4632
:1029300040464946FEF71AF940B14B46002BBCBF52
:102940002D2384F843307E4A7E4BD4E763680AF037
:10295000DF0206925A1C3BD1062363604BF480626F
:102960000023226003930AABCDE901A309AB0093D6
:10297000616849EC108B0DF123032846FFF7D6FE62
:10298000069B0999472B804629D1C81C02DB636846
:10299000994241DDAAF1020A5FFA8AFA01395246E8
:1029A00004F150000991FFF726FF0A9A1318012A33
:1029B0008146236102DC2268D20701D501332361FD
:1029C0009DF82330002BA2D02D2384F843309EE7BE
:1029D000069A472AC2D1002BC0D10123BDE7BAF124
:1029E000650FDBD9BAF1660F18D1002963680BDDDA
:1029F000216113B92268D00702D501330B4423614A
:102A0000A1654FF00009DBE713B92268D20701D5B1
:102A10000233F4E70123F2E74FF0670A0A9B994279
:102A200005DB23682161D807EAD54B1CE7E70029BD
:102A3000D4BFC1F1020201221344E0E723685A0522
:102A400007D42369424631462846B84701302BD186
:102A500067E7BAF1650F40F2DD80D4E91201002288
:102A60000023FEF751F8002833D0374A01233146BE
:102A70002846B84701303FF454AFDDE909384345F3
:102A800002DB2368D8070FD5DDE904233146284649
:102A9000B84701303FF445AF4FF0000908F1FF3867
:102AA00004F11A0AC84509DC23689B0700F1038179
:102AB000E0680B9B9842B8BF184634E701235246A2
:102AC00031462846B84701303FF42BAF09F10109E0
:102AD000E8E7099B002B39DC1B4A012331462846D5
:102AE000B84701303FF41DAFDDE9093959EA030366
:102AF00002D12368D907D7D5DDE90423314628461A
:102B0000B84701303FF40DAF4FF0000A04F11A0B43
:102B1000099B5B42534501DC4B4693E701235A4630
:102B200031462846B84701303FF4FBAE0AF1010AAE
:102B3000EEE700BFFFFFEF7F655000086950000817
:102B40006D5000087150000875500008A36DDDF845
:102B500028A05345A8BF5346002B994636DC4FF0BA
:102B6000000B29EAE97904F11A02A36D0693A3EB9D
:102B700009035B4531DC099B9A453ADC2368DA0797
:102B800037D4099BAAEB0309069BAAEB03039945DB
:102B9000A8BF9946B9F1000F33DC4FF0000829EACD
:102BA000E97904F11A0B099BAAEB0303A3EB0903D0
:102BB00043457FF779AF01235A4631462846B84747
:102BC00001303FF4AEAE08F10108ECE74246314671
:102BD0002846B8470130C2D1A3E601233146284632
:102BE0000692B84701303FF49CAE069A0BF1010BF8
:102BF000BBE7DDE9042331462846B8470130C0D1A0
:102C00008FE6069A4B46424431462846B847013083
:102C1000C3D186E6DDF828A0BAF1010F01DCDB079D
:102C200036D50123424631462846B84701303FF4A5
:102C300078AEDDE9042331462846B84701303FF439
:102C400070AED4E91201002200230AF1FF3AFDF729
:102C50005BFFC0B9534608F1010231462846B84728
:102C600001300CD15DE601235A4631462846B8476B
:102C700001303FF456AE08F10108D045F3DB4B4676
:102C800004F15002DFE64FF0000804F11A0BF4E7FC
:102C900001234246E1E701234A4631462846B84728
:102CA00001303FF43EAE08F10108E3680B995B1A6E
:102CB0004345F0DCFCE64FF0000804F11909F4E7A5
:102CC0002DE9F047164698468A680B69DDF8209092
:102CD0009342B8BF1346336091F8432007460C4631
:102CE0000AB1013333602368990642BF3368023367
:102CF0003360256815F0060506D104F1190AE3686A
:102D000032689B1AAB4226DC94F843302268003BC1
:102D100018BF012392062BD404F1430241463846E2
:102D2000C84701301ED02368226903F00603042B34
:102D300002BFE5683368ED1AA3680CBF25EAE575A4
:102D400000259342C4BF9B1AED1800261A34B542E1
:102D50001AD1002008E00123524641463846C847B0
:102D6000013003D14FF0FF30BDE8F0870135C6E7F1
:102D7000E1185A1C302081F84300224494F8451091
:102D800082F843100233C7E7012322464146384602
:102D9000C8470130E6D00136D9E700002DE9FF47EA
:102DA0000F7E0C9E782F914680460C469A4601F184
:102DB000430207D8622F0AD8002F00F0D280582F84
:102DC00000F0B98004F1420684F842703AE0A7F1BD
:102DD0006303152BF6D801A151F823F0352E000816
:102DE000492E0008C52D0008C52D0008C52D000876
:102DF000C52D0008492E0008C52D0008C52D000866
:102E0000C52D0008C52D0008492F0008732E0008A5
:102E1000032F0008C52D0008C52D00086B2F0008E2
:102E2000C52D0008732E0008C52D0008C52D00080B
:102E30000B2F000833681A1D1B68326004F142062C
:102E400084F8423001239DE033682068191D316009
:102E5000060601D51D6803E04506FBD5B3F9005011
:102E6000002D03DA2D236D4284F8433059480A239C
:102E700011E021683368080653F8045B02D4490660
:102E800048BFADB26F2F5348336014BF0A230823E5
:102E9000002184F843106668A660002EA2BF216856
:102EA00021F0040121600DB9002E4BD01646B5FB70
:102EB000F3F103FB1157C75D06F8017D2F46BB42B6
:102EC0000D46F4D9082B0BD12368DF0708D52369F9
:102ED00061689942DEBF302306F8013C06F1FF36F7
:102EE000921B2261CDF800A04B4603AA2146404622
:102EF000FFF7E6FE01304AD14FF0FF3004B0BDE8E5
:102F0000F087236843F0200323603348782784F850
:102F10004570236831681F0651F8045B02D45F06D0
:102F200048BFADB23160D90744BF43F020032360EE
:102F30001DB11023ACE72748E9E7236823F02003FD
:102F40002360F6E71646BDE7336825686169181DFA
:102F500030602E061B6801D5196002E06806FBD5BB
:102F60001980002323611646BCE733681A1D3260BE
:102F70001E68626800213046FDF74AF908B1801BDF
:102F8000606063682361002384F84330AAE7236903
:102F9000324649464046D0470130ADD023689B07B2
:102FA00013D4E068039B9842B8BF1846A6E70123F4
:102FB000324649464046D04701309DD00135E3684E
:102FC00003995B1AAB42F2DCEBE7002504F119062A
:102FD000F5E700BF7750000888500008002310B5BF
:102FE0000446C0E90033C0E904338360818143664D
:102FF000C2818361194608225C3000F0F4F80D4B61
:1030000063620D4BA3620D4BE3620D4B23630D4BCB
:1030100024629C4206D003F16802944202D0D0336D
:103020009C4205D104F15800BDE8104000F058B9A9
:1030300010BD00BF6131000883310008BB310008BA
:10304000DF31000868020020024A0349034800F00B
:1030500069B800BF0C0000208D4900081C0000204A
:1030600041680C4B994210B5044601D001F08EFC2A
:10307000A168094B994202D0204601F087FCE16823
:10308000064B994204D02046BDE8104001F07EBCBA
:1030900010BD00BF68020020D002002038030020CD
:1030A00010B50B4B0B4C0C4A1A6020460022042131
:1030B000FFF794FF04F1680001220921FFF78EFF5A
:1030C00004F1D0000222BDE810401221FFF786BFB4
:1030D000A00300206802002049300008014800F0E9
:1030E00000B900BFA9030020014800F0FBB800BFF1
:1030F000A903002010B50446FFF7F0FF236A1BB1B7
:10310000BDE81040FFF7F0BF044B2362044B1B687F
:10311000002BF5D1FFF7C4FFF2E700BF61300008D4
:10312000A00300202DE9F8430746884614460026F0
:10313000D4E90195B9F1010905D52468002CF7D12E
:103140003046BDE8F883AB89012B07D9B5F90E30BD
:10315000013303D029463846C04706436835E9E7BE
:1031600010B50C46B1F90E1000F06CF80028ABBF9A
:10317000636DA3891B1823F48053ACBF6365A381DF
:1031800010BD2DE9F0411F468B89DB0505460C4635
:10319000164605D5B1F90E100223002200F040F8C2
:1031A000A389B4F90E1023F48053A38132463B4621
:1031B0002846BDE8F04100F057B810B50C46B1F90B
:1031C0000E1000F02DF8431CA38915BF606523F491
:1031D000805343F48053A38118BFA38110BDB1F97C
:1031E0000E1000F00DB802440346934200D1704720
:1031F00003F8011BF9E70000004870475801002060
:1032000038B5064D0023044608462B60FEF752FAF7
:10321000431C02D12B6803B1236038BDA4030020F6
:1032200038B5074D04460846114600222A601A4662
:10323000FEF74AFA431C02D12B6803B1236038BD64
:10324000A403002038B5074D044608461146002265
:103250002A601A46FEF713FA431C02D12B6803B109
:10326000236038BDA403002038B5074D0446084646
:10327000114600222A601A46FEF70FFA431C02D1BB
:103280002B6803B1236038BDA4030020014B1868EC
:10329000704700BF1800002070B50D4D0D4C641B29
:1032A000A4100026A64209D10B4D0C4C01F0BCFE27
:1032B000641BA4100026A64205D170BD55F8043B3E
:1032C00098470136EEE755F8043B98470136F2E798
:1032D000E0530008E0530008E0530008E4530008FE
:1032E0007047704770472DE9F74F03690C69A34297
:1032F00007467EDB013C01F11408A30000F1140530
:10330000009305EB8403019358F8243055F82420EA
:1033100001339A4208EB8409B2FBF3F62ED34FF047
:10332000000AC446AE46D3465CF8043B98B206FB9E
:1033300000A0020C1B0C06FB0323DEF8002080B269
:1033400092B2121A5A44DEF800004FEA134A9BB2B6
:10335000C3EB224303EB104392B242EA0342E1453E
:103360004EF8042B4FEA234BDED2009BEB582BB9CF
:10337000019B043B9D421A462FD33C61384601F025
:1033800079F9002825DB2946002058F8042BD1F8CC
:1033900000C01FFA82FE1FFA8CF3A3EB0E03034456
:1033A000120CC2EB234202EB1C429BB243EA0243E3
:1033B000C14541F8043B4FEA2240E6D255F82420AB
:1033C00005EB840322B9043B9D421A460BD33C61B2
:1033D0000136304603B0BDE8F08F1268043B002A86
:1033E000CBD1013CC6E71268043B002AEFD1013C77
:1033F000EAE70020EEE700002DE9F04FC76999B039
:103400008DED020B55EC104B229E099183460E92D6
:1034100013937FB9102000F0FDFD0246CBF81C008D
:1034200020B9A74BEF21A74801F0F6FAC0E90177D0
:103430000760C760DBF81C30196859B15A684A60E8
:10344000012393408B60584600F0DAFEDBF81C3015
:1034500000221A602B1EB9BF23F000430393002300
:103460003360039F984BBCBF01223260BB4312D133
:10347000139A42F20F731360C7F31303234300F050
:103480004D85239BDFF854A2002B00F04F850AF1F5
:10349000030300F049BD9DED027B002251EC170BA8
:1034A00000238DED0C7BFDF72FFB804658B1139A5E
:1034B00001231360239B13B1239A844B1360DFF81D
:1034C00020A200F033BD9DED0C0B16AA17A958469B
:1034D00001F080F9C7F30A568146002E77D00D9B84
:1034E000CDF85080C3F31303DDE90C0143F07F53A3
:1034F00043F44013A6F2FF3619460022744BFCF742
:10350000E3FE69A3D3E90023FDF796F868A3D3E9A6
:103510000023FCF7DBFE044630460D46FDF722F89B
:1035200065A3D3E90023FDF787F802460B46204642
:103530002946FCF7CBFE04460D46FDF72DFB002285
:103540000746002320462946FDF7E8FA40B13846F1
:10355000FDF708F822462B46FDF7D6FA00B9013FE1
:10356000162F51D85B4B03EBC703D3E90023DDE9EA
:103570000C01FDF7D3FA002848D0013F0023129335
:10358000169B9B1B5A1E44BFC3F1010800230892DF
:1035900054BF4FF000080893002F39DB089B0F97AA
:1035A0003B44089300230A93099B092B64D8052BFD
:1035B000C4BF043B0993099BA3F10203CCBF0024C1
:1035C0000124032B63D8DFE803F02A373555DDE902
:1035D00016631E4406F23243202BC1BFC3F14003E1
:1035E0009F4006F2124324FA03F3D6BFC3F120032F
:1035F00047EA030004FA03F0FCF7A4FF0122A1F15B
:10360000F873013E149277E70123B8E71290B7E709
:103610007B420A930023A8EB07080F93C4E700231B
:103620000B930E9B002B35DC0123009307931A4666
:103630000E920BE00123F3E700230B930E9BFB1884
:1036400000930133012B0793B8BF0123DBF81C0063
:103650000021042202F114059D421FD94160584601
:1036600000F08EFD824600283CD11B4B024640F202
:10367000AF11D8E60123E0E70124002309930B945E
:103680004FF0FF330093079300221223D0E701236A
:103690000B93F5E70E9B00930793D7E70131520098
:1036A000D8E700BFAFF3008061436F63A787D23FC5
:1036B000B3C8608B288AC63FFB799F501344D33F21
:1036C000A6500008BD5000080000F07F76500008AA
:1036D0000000F83FB851000815510008A25000083A
:1036E00075500008DBF81C301860079B0E2B00F2A9
:1036F000A480002C00F0A180002F33DDAD4B07F03B
:103700000F0203EBC20393ED007BF8058DED047B04
:103710004FEA271416D5A84BDDE90C01D3E908239D
:10372000FDF7B4F8CDE9020104F00F040326A24D21
:1037300054B9DDE90423DDE90201FDF7A7F8CDE97D
:10374000020128E00226F2E7E10708D5DDE90401DD
:10375000D5E90023FCF770FFCDE9040101366410C0
:103760000835E5E700F0D2807C42924B924D04F0A0
:103770000F0203EBC203D3E90023DDE90C01FCF7E0
:103780005BFFCDE90201241100230226002C40F04A
:10379000B280002BD3D1129BDDE90245002B00F053
:1037A000B780864B002220462946FDF7B7F900284E
:1037B00000F0AE80079B002B00F0AA80009B002B3E
:1037C00037DD7B1E049320467D4B00222946FCF703
:1037D00033FFCDE90201009C01363046FCF7C2FE02
:1037E000DDE90223FCF728FF764B0022FCF76EFD93
:1037F0000546A1F15076002C40F08D80DDE90201F4
:10380000714B0022FCF760FD02460B46CDE9022316
:103810002A463346FDF7A0F9002840F08B82DDE907
:1038200002012A4606F10043FDF778F9002840F02E
:103830002881DDE90C34CDE90234179B002BC0F25E
:103840005A810E2F00F357815A4B03EBC70393EDB8
:10385000007B0E9B002B8DED007B03DA079B002B7A
:1038600040F30181DDE902455646DDE900232046AB
:103870002946FDF70BF8FDF78FF98046FCF772FE3D
:10388000DDE90023FCF7D8FE02460B462046294618
:1038900008F13004FCF718FD06F8014B079DA6EB74
:1038A0000A04A54202460B4640F01781FCF70EFDC4
:1038B000DDE9002304460D46FDF74EF9002840F0EF
:1038C000F980DDE9002320462946FDF71DF918B1EE
:1038D00018F0010F40F0EE804946584600F090FC89
:1038E00000233370139B01371F60239B002B00F0D4
:1038F0001D831E601AE3E20705D5D5E90023FCF716
:103900009BFE01360123641008353FE7022642E79B
:10391000079C049761E7274B0B9903EBC40353E91A
:1039200002235444002953D028490020FCF7AEFF5D
:1039300033462A46FCF7C8FCCDE910015646DDE9BE
:103940000201FDF729F90546FCF70CFE02460B467D
:10395000DDE90201FCF7B8FC303502460B46CDE943
:10396000022306F8015BDDE91023FDF7D7F80028F4
:1039700071D1DDE9022311490020FCF7A5FCDDE946
:103980001023FDF7CBF8002840F09580A6423FF4C5
:1039900050AFDDE910010A4B0022FCF74DFE084B49
:1039A000CDE910010022DDE90201FCF745FECDE979
:1039B0000201C4E7B8510008905100080000F03F30
:1039C0000000244000001C40000014400000E03FC4
:1039D00031462846FCF730FECDE9100115945646D5
:1039E000DDE90201FDF7D8F80546FCF7BBFD02460C
:1039F0000B46DDE90201FCF767FC303506F8015B98
:103A000002460B46A642CDE902234FF0000224D124
:103A1000AC4BDDE91001FCF759FC02460B46DDE931
:103A20000201FDF799F8002845D1DDE91023A549E9
:103A30000020FCF749FC02460B46DDE90201FDF7D8
:103A40006DF800283FF4F5AE159E731E159316F819
:103A5000013C302BF8D0049F3EE79B4BFCF7ECFD7C
:103A6000CDE90201BCE70CD1984B0022DDE9000151
:103A7000FCF7E2FDDDE90223FDF764F8002800F021
:103A80005781002425460E9BDB43049356460027AE
:103A90002146584600F0B4FB002DDCD02FB1AF42D8
:103AA00003D03946584600F0ABFB2946584600F093
:103AB000A7FBD0E7049733461E4613F8012D392A99
:103AC00007D19A45F8D1049A0132049230228AF83B
:103AD00000201A7801321A70BDE77B4B0022FCF7F8
:103AE000ABFD0022002304460D46FDF70DF800282B
:103AF0003FF4BBAEF0E60B9A002A00F0DB80099A97
:103B0000012A00F3BF80149A002A00F0B78003F264
:103B100033430A9C4646089A01211A445846984461
:103B2000089200F021FC05465EB1089B002B08DDE1
:103B3000B342089AA8BF3346A8EB0308F61AD31A73
:103B400008930A9BF3B10B9B002B00F0B7808CB15C
:103B500029462246584600F0C7FC4A46014605461B
:103B6000584600F017FC49460490584600F048FBC0
:103B7000049B99460A9B1A1B04D04946584600F0FC
:103B8000B3FC81460121584600F0EEFB0F9B044632
:103B9000002B00F0CF811A460146584600F0A4FCE5
:103BA000099B012B044600F39580029B002B40F0FB
:103BB0008780039BC3F31303002B40F08980039B92
:103BC00023F000431B0D1B052BB1089B0133089309
:103BD00008F1010801230A930F9B002B00F0B0812C
:103BE000236904EB8303186900F072FBC0F1200025
:103BF000089B184410F01F0077D0C0F12003042B5D
:103C00006BDD089BC0F11C0003448044064408930C
:103C1000B8F1000F05DD49464246584600F0BEFCAB
:103C20008146089B002B05DD21461A46584600F0C8
:103C3000B5FC0446129B002B59D02146484600F0A3
:103C400019FD002853DA7B1E0493494600230A22FB
:103C5000584600F0F7FA0B9B8146002B00F072816A
:103C6000002329460A22584600F0ECFA009B002B5C
:103C7000054667DC099B022B41DC63E0169BC3F120
:103C8000360346E7079B5C1E0A9BA342BFBF0A9B05
:103C90000F9A0A94E31AB4BFD2181C1B079BBCBF2F
:103CA0000F920024002BB5BFA8EB0306079B00234F
:103CB000464630E70A9C0B9D464635E70A9A5CE784
:103CC000002388E70000E03F00002440000014408B
:103CD000029B80E700230A9382E799D0089A1C335D
:103CE0001A4498441E44089292E70346F6E7079B5D
:103CF0000497002B20DC0093099B022B1EDD009B08
:103D0000002B7FF4C0AE21460522584600F09AFAF7
:103D100001460446484600F0ADFC00287FF7B3AEEC
:103D20005646312306F8013B049B01330493AEE66B
:103D3000079C04972546F3E7079B00930B9B002BFA
:103D400000F00481002E05DD29463246584600F079
:103D500025FC05460A9B002B5AD06968584600F09E
:103D60000FFA064628B9844B024640F2EF21FFF7CE
:103D70005ABB2A690232920005F10C010C3000F0A6
:103D80003DFE01223146584600F008FC0AF10103CD
:103D90000793009B53440B93029B03F001032F46B0
:103DA0000A930546079B2146013B48460093FFF7CF
:103DB0009AFA3946029000F13008484600F05AFC61
:103DC0002A4608902146584600F070FCC268064614
:103DD00002BB0146484600F04DFC024631465846BB
:103DE0000E9200F00DFA099B0E9A079E43EA02011B
:103DF0000A9B194310D1B8F1390F29D0089B002B29
:103E000002DD029B03F13108009B83F800803FE64E
:103E10002846BBE70122E1E7089B002B04DB099958
:103E20000B430A990B4320D1002AEDDD49460122BC
:103E3000584600F0B3FB2146814600F01BFC0028E9
:103E400003DCE1D118F0010FDED0B8F1390FD8D181
:103E5000009A3923137033461E46013B16F8012C95
:103E6000392A52D001321A7012E6002A07DDB8F161
:103E7000390FEDD0009A08F10103137008E6079B93
:103E8000079A03F8018C0B9B934228D049460023E4
:103E90000A22584600F0D6F9AF4281464FF000039F
:103EA0004FF00A023946584607D100F0CBF90746D1
:103EB0000546079B0133079374E700F0C3F92946D1
:103EC000074600230A22584600F0BCF90546F0E7F1
:103ED000009B002BCCBF1E460126564400274946B6
:103EE0000122584600F05AFB2146814600F0C2FBF1
:103EF0000028B0DC02D118F0010FACD133461E46C9
:103F000013F8012D302AFAD0C2E59A45A4D1049BBA
:103F10000133049331238AF80030B9E5239BDFF89D
:103F20005CA01BB10AF10803239A1360504619B034
:103F3000BDE8F08F099B012B7FF737AE0F9B0A93EB
:103F4000012055E6009B002B7FF7D6AE5646214652
:103F50004846FFF7C8F900F1300806F8018B009BCE
:103F6000A6EB0A029342B3DD494600230A225846D3
:103F700000F068F98146EAE71551000899500008F9
:103F800038B50546002941D051F8043C0C1F002BE0
:103F9000B8BFE41800F0E8F81D4A136833B963604D
:103FA00014602846BDE8384000F0E4B8A34208D9C0
:103FB000206821188B4201BF19685B6809182160CD
:103FC000EDE71A465B680BB1A342FAD911685018A5
:103FD000A0420BD120680144501883421160E0D107
:103FE00018685B68536008441060DAE702D90C2354
:103FF0002B60D6E7206821188B4204BF19685B68E4
:10400000636004BF091821605460CAE738BD00BF6F
:10401000B0030020024B0146186800F025B800BF2D
:104020001800002070B50F4E0C463168054611B9D6
:1040300000F0D4FC30602146284600F0CFFC431C41
:1040400003D14FF0FF34204670BDC41C24F003049C
:10405000A042F8D0211A284600F0C0FC0130F2D16D
:10406000EFE700BFAC0300202DE9F843CD1C25F09D
:10407000030508350C2D38BF0C25002D064601DB45
:10408000A94204D90C2333600020BDE8F883DFF88F
:10409000D48000F069F8D8F800301C4644BB2946AB
:1040A0003046FFF7BFFF431C044658D1D8F8004004
:1040B0002746002F43D1002C4BD023683946304689
:1040C00004EB030900F08AFC814542D121686D1A96
:1040D00029463046FFF7A6FF01303AD023682B442B
:1040E0002360D8F800305A6862BBC8F800700FE04F
:1040F0002268521B20D40B2A17D96119A3422560CC
:1041000018BF5960636808BFC8F8001062514B605F
:10411000304600F02FF804F10B00231D20F00700BB
:10412000C21A1CBF1B1AA350AFE76268A3420CBFA0
:10413000C8F800205A60EBE723466468AEE73C46C7
:104140007F68B6E71A465B68A342FBD10023536041
:10415000DEE70C233360304600F00CF894E705608E
:10416000D6E700BFB00300200148FFF7BAB800BF90
:10417000A80300200148FFF7B5B800BFA80300203E
:1041800070B5C66904460D4676B91020FFF742FFA8
:104190000246E06120B9184B18486B2100F03CFC46
:1041A000C0E901660660C660E669F36883B1E36949
:1041B000DB6853F82500B8B9012101FA05F6721D34
:1041C0009200204600F046FC60B1C0E901560EE0C6
:1041D00021220421204600F03DFCE369F060DB6809
:1041E000002BE4D1002070BD026843F82520002395
:1041F000C0E90333F7E700BFA650000826510008C6
:1042000070B5C66905460C4676B91020FFF702FF67
:104210000246E86120B9094B09488F2100F0FCFBF8
:10422000C0E901660660C6603CB1EB696268DB68A4
:1042300053F82210216043F8224070BDA6500008B8
:10424000265100082DE9F0410D6907460C461E462F
:1042500001F1140C0020DCF8003099B202FB01617E
:104260001E0C0B0C02FB063389B2013001EB03413B
:1042700085424CF8041B4FEA1346ECDC0EB3A368EE
:10428000AB4219DC616838460131FFF779FF80469F
:1042900028B902460C4B0D48BA2100F0BDFB22693B
:1042A000023204F10C0192000C3000F0A7FB214611
:1042B0003846FFF7A5FF444604EB850301355E61F0
:1042C00025612046BDE8F0811551000826510008FF
:1042D000B0F5803F034636BF030400201020B3F141
:1042E000807F3CBF1B020830B3F1805F3CBF1B01E5
:1042F0000430B3F1804F3CBF9B000230002B05DB44
:1043000013F0804F00F1010008BF202070470368C0
:10431000024613F007000BD0D90721D4980749BFF4
:104320005B089B08012013605CBF1360022070478C
:1043300099B209B91B0C1020D9B209B908301B0A6F
:10434000190704BF1B090430990704BF9B080230FA
:10435000D90703D45B0800F1010003D01360704754
:10436000002070472020704710B50C460121FFF750
:1043700007FF024628B9054B054840F2451100F0F9
:104380004BFB01234461036110BD00BF15510008C0
:10439000265100082DE9F04F14460A6923699A4214
:1043A000A8BF23460F46A4BF0C461F46D4F810A052
:1043B000D7F81090A36861680AEB0906B34285B08C
:1043C000B8BF0131FFF7DCFE30B90246444B454827
:1043D0004FF4B17100F020FB00F1140505EB8608E5
:1043E0002B460022434521D307F1140104F11402A6
:1043F00002EB8A0201EB89030293131B153B23F0A6
:104400000303043304F11507BA4238BF04230193B0
:10441000029B03918B420CD8002E03DD58F8043D1B
:10442000002B5BD0066105B0BDE8F08F43F8042B8C
:10443000D8E7B1F800A0BAF1000F24D004F1140EAF
:10444000A9464FF0000C5EF8047BD9F800301FFA43
:1044500087FB9BB20AFB0B334FEA174BD9F800706E
:1044600063444FEA174C0AFB0BC707EB13479BB299
:1044700043EA0743724549F8043B4FEA174CE2D838
:10448000019B45F803C0039BB3F802900431B9F1D6
:10449000000F21D02B6804F1140CAE464FF0000A37
:1044A000BCF800B0BEF8027009FB0B7757449BB212
:1044B00043EA07434EF8043B5CF8043B4FEA134AD7
:1044C000BEF8003009FB0A3303EB174362454FEA9D
:1044D000134AE5D8019FEB51043599E7013E9BE76C
:1044E00015510008265100082DE9F843154612F031
:1044F000030207460E4607D0254C013A002354F824
:104500002220FFF79FFE0646AD103DD0FC697CB926
:104510001020FFF77FFD0246F86128B91D4B1E48A9
:1045200040F2B31100F078FAC0E901440460C460BD
:10453000D7F81C80D8F808404CB940F271213846B1
:10454000FFF712FF0023C8F80800044603604FF08D
:104550000009EB070AD5314622463846FFF71AFF15
:10456000314680463846FFF74BFE46466D100BD06D
:10457000206838B9224621463846FFF70BFF2060F5
:10458000C0F800900446E4E73046BDE8F88300BF79
:1045900080510008A6500008265100082DE9F04778
:1045A0000C464968236903EB6218A36807469146E5
:1045B0004FEA621A08F10106B3420BDB3846FFF7F7
:1045C000DFFD054648B90246284B29484FF4EF71F4
:1045D00000F022FA01315B00EEE7002300F1140144
:1045E00000F110021846534533DB20692AEAEA7AC3
:1045F00004F1140319F01F0901EB8A0103EB800C8D
:104600002BD0C9F1200E8A460022186800FA09F062
:1046100010434AF8040B53F8042B9C4522FA0EF27F
:10462000F3D8ACEB0403153B23F00303043304F18C
:104630001500844538BF0423CA500AB108F10206A8
:10464000013E38462E612146FFF7DAFD2846BDE8D7
:10465000F08742F8040F0133C5E7043953F8042BFF
:1046600041F8042F9C45F9D8EAE700BF155100082E
:10467000265100080A6903460069801A30B50ED138
:104680001433143103EB820401EB820154F8045D0E
:1046900051F8042D954203D005D24FF0FF3030BDC4
:1046A000A342F3D3FBE70120F9E700002DE9F74F20
:1046B00089460646114648461446FFF7DBFF051EAD
:1046C00012D129463046FFF75BFD024628B93F4B21
:1046D00040F237213E4800F09FF90123C0E904353C
:1046E000104603B0BDE8F08FBCBF4B46A146304634
:1046F000D9F80410BABF1C4601250025FFF740FD7C
:10470000024618B9314B40F24521E3E7D9F8107061
:104710002669C56009F1100309F1140504F1140EAE
:1047200000F1140B05EB87080EEB86060193D946C2
:104730004FF0000C019B5EF8040B53F804AF01939B
:104740001FFA8AF3194683B2CB1A000C6344C0EBFC
:104750001A4000EB23409BB243EA0043764549F8F8
:10476000043B4FEA204CE5D8331B153B23F00303F1
:1047700015340433A64238BF04231D445B441E464F
:104780002C4644450ED308F10301491B21F00301D7
:10479000033DA84538BF00210B4453F8041D91B1D7
:1047A00017619DE754F8041BE646080C1CFA81FCCF
:1047B000714400EB2C4089B241EA004146F8041BE9
:1047C0004FEA204CDDE7013FE7E700BF1551000845
:1047D000265100082DE9F7430F46012159EC108BB3
:1047E0001646FFF7CDFC044630B90246234B244859
:1047F00040F20F3100F010F9C9F30A55C9F3130361
:104800000DB143F480130193B8F1000323D068463F
:104810000093FFF77CFDDDE90012D0B1C0F1200369
:1048200002FA03F30B43C24063610192019BA3614F
:10483000002B0CBF012202222261A5B1A5F2334553
:1048400005443D60C0F135003060204603B0BDE84E
:10485000F0836161EAE701A8FFF759FD019B6361FD
:1048600020300122E8E704EB8203A0F232403860F6
:104870001869FFF72DFDC0EB4210E5E71551000860
:1048800026510008B1F90C202DE9F0411607054624
:104890000C4654D44B68002B02DC0B6C002B48DD1B
:1048A000E66A002E45D0002312F480522F68216A58
:1048B0002B6030D0626DA389590705D56368D21A81
:1048C000636B0BB1236CD21A0023E66A216A284677
:1048D000B047431CA38906D129681D292BD82A4A31
:1048E0000A41D60727D400226260D90422692260D7
:1048F00004D5421C01D12B6803B96065616B2F6040
:10490000B9B104F14403994202D02846FFF738FBBD
:10491000002363630DE001232846B0470246501C84
:10492000C9D12B68002BC6D01D2B01D0162B1ED150
:104930002F60002022E043F040031BB21BE00F6910
:10494000002FF6D093070E6808BF4B690F6018BFA1
:104950000023A6EB07088B60B8F1000FE9DD216AA0
:10496000A66A43463A462846B047002808DCB4F910
:104970000C3043F04003A3814FF0FF30BDE8F081DD
:104980000744A8EB0008E7E7FEFFBFDF38B50B6977
:1049900005460C4613B90025284638BD18B1036AF0
:1049A0000BB9FEF7A7FBB4F90C30002BF3D0626E05
:1049B000D00704D4990502D4A06DFEF792FC2846D6
:1049C0002146FFF75FFF636EDA070546E4D4A3894B
:1049D0009B05E1D4A06DFEF785FCDDE738B5064DFB
:1049E0000023044608462B60FCF770FE431C02D1EE
:1049F0002B6803B1236038BDA40300200A44914210
:104A000000F1FF3300D1704710B511F8014B03F8E6
:104A1000014F9142F9D110BD1FB514461A46094BFA
:104A20001B680546D86854B9074B1C46CDE90134CC
:104A300000912B46054900F041F800F051F8044B75
:104A4000F4E700BF18000020C55200089752000884
:104A50008A52000870B5A1FB02543CB92946FFF701
:104A600003FB064628B90026304670BD0C220260C2
:104A7000F9E72A462146FEF7B6FBF5E782B001B911
:104A800001A942B14BB113780B601278101E18BF08
:104A9000012002B070471046FBE76FF00100F8E715
:104AA0000346084641B1FF2A04D98A221A604FF012
:104AB000FF3070470A700120704700000EB403B544
:104AC000014603AB054853F8042B0068019300F03E
:104AD00037F802B05DF804EB03B07047180000200F
:104AE00008B5062000F000FA0120FCF7C2FD93682B
:104AF000013B002B10B4936008DA9469A34201DBF8
:104B00000A2903D15DF8044B00F032B91368581C30
:104B10001060197008465DF8044B7047F8B50646FA
:104B20000F461446D518AC4201D1002007E014F816
:104B3000011B3A463046FFF7DAFF431CF3D1F8BDBC
:104B40002DE9F04F0D469DB014469846064618B123
:104B5000036A0BB9FEF7CEFA6B6ED90705D4AB89A1
:104B60009A0502D4A86DFEF7BCFBAB891B0701D5E3
:104B70002B699BB92946304600F038F970B16B6E4D
:104B8000DC0704D54FF0FF301DB0BDE8F08FAB89D6
:104B90009805F7D4A86DFEF7A5FBF3E7002309936A
:104BA00020238DF82930CDF80C803023DFF8AC813C
:104BB0008DF82A304FF0010923469A4613F8012B4D
:104BC0000AB1252AF9D1BAEB040B0BD05B46224679
:104BD00029463046FFF7A2FF013000F0A780099A6E
:104BE0005A4409929AF80030002B00F09F8000236D
:104BF0004FF0FF32CDE905230AF1010A0493079330
:104C00008DF853301A935446052214F8011B53486B
:104C1000FBF7FEFA049AD8B9D10644BF20238DF8D9
:104C20005330130744BF2B238DF853309AF80030CC
:104C30002A2B15D0079A544600204FF00A0C214623
:104C400011F8013B303B092B4BD9B0B1079214E06E
:104C5000A0EB080309FA03F313430493A246D2E737
:104C6000039B191D1B680391002BBBBF5B4242F0E5
:104C7000020207930793B8BF049223782E2B0AD120
:104C800063782A2B32D1039B1A1D1B68039243EAD7
:104C9000E37302340593DFF8D4A021780322504651
:104CA000FBF7B6FA38B1049BA0EB0A004022824021
:104CB00013430134049314F8011B29488DF828107C
:104CC0000622FBF7A5FA00283FD0264B1BBB039B0F
:104CD000073323F0070308330393099B3B440993ED
:104CE0006AE70CFB02320C460120A8E700230134DE
:104CF000059319464FF00A0C204610F8012B303A64
:104D0000092A03D9002BC6D00591C4E70CFB012169
:104D100004460123F0E703AB00932A46124B04A993
:104D20003046FDF7A3FD0746781CD6D16B6ED90738
:104D300005D4AB899A0502D4A86DFEF7D3FAAB89E6
:104D40005B063FF51FAF09981EE703AB00932A46A9
:104D5000054B04A93046FEF721F8E4E7C7530008E5
:104D6000D15300086D2800081D4B0008CD530008E2
:104D7000F8B50E461446054618B1036A0BB9FEF79E
:104D8000B9F9A369A360A3891A0701D5236943B9B7
:104D90002146284600F02AF818B14FF0FF37384670
:104DA000F8BD23682269981A6369F6B283423746D0
:104DB00005DC21462846FFF7E9FD0028EDD1A36870
:104DC000013BA36023685A1C22601E706269431C69
:104DD0009A4204D0A389DB07E1D50A2EDFD1214610
:104DE0002846FFF7D3FD0028D9D0D6E738B5294BA0
:104DF000054618680C4618B1036A0BB9FEF77AF934
:104E0000B4F90C30190722D4DA0607D409222A6033
:104E100043F04003A3814FF0FF3033E0580712D531
:104E2000616B41B104F14403994202D02846FFF777
:104E3000A7F800236363A38923F02403A38100233D
:104E4000636023692360A38943F00803A381236976
:104E50004BB9A38903F42073B3F5007F03D0214637
:104E6000284600F083F8B4F90C3013F001020AD0A0
:104E70000022A26062695242A261226942B913F023
:104E80008000C5D138BD990758BF6269A260F4E7B8
:104E90000020F7E7180000201F2938B505460C460A
:104EA00004D9162303604FF0FF3038BDC26B12B136
:104EB00052F821304BB9284600F030F8224601461E
:104EC0002846BDE8384000F017B8012B0AD0591C1D
:104ED00003D1162303600120E7E7002142F82410E4
:104EE000204698470020E0E7024B01461868FFF78C
:104EF000D3BF00BF1800002038B5074D002304467B
:104F0000084611462B60FCF7ACFB431C02D12B6812
:104F100003B1236038BD00BFA4030020FCF79FBB92
:104F200070B50C46B1F90E10002996B015461E4614
:104F30000DDAA38913F0800F4FF0000114BF402356
:104F40004FF48063002031602B6016B070BD6A465C
:104F500000F048F80028ECDB019901F47041A1F55C
:104F60000053594259414FF48063EBE78B89F7B501
:104F70009D0706460C4607D504F1470323602361CD
:104F80000123636103B0F0BD01AB6A46FFF7C8FFC0
:104F9000009F054639463046FFF766F848B9B4F930
:104FA0000C309A05EED423F0030343F00203A381EF
:104FB000E2E7A389206043F08003A381019BC4E959
:104FC00004075BB1B4F90E10304600F01DF828B1AB
:104FD000A38923F0030343F00103A381A3891D43A5
:104FE000A581CFE738B5074D002304460846114692
:104FF0002B60FCF762FB431C02D12B6803B12360DA
:1050000038BD00BFA403002038B5064D0023044678
:1050100008462B60FCF756FB431C02D12B6803B1FA
:10502000236038BDA4030020F8B500BFF8BC08BC5D
:105030009E467047F8B500BFF8BC08BC9E46704756
:105040005152535455565758595A5B5C0000000052
:105050000001020304000000000000000001020340
:105060000406070809494E4600696E66004E414E27
:10507000006E616E003000303132333435363738EF
:1050800039414243444546003031323334353637B6
:10509000383961626364656600496E66696E697479
:1050A00079004E614E005245454E54206D616C6C46
:1050B0006F6320737563636565646564002F627553
:1050C000696C642F676E752D746F6F6C732D666FCE
:1050D000722D73746D33325F31322E332E72656CE4
:1050E000312E32303234303932362D313731352F9E
:1050F0007372632F6E65776C69622F6E65776C696A
:10510000622F6C6962632F7374646C69622F6474BC
:105110006F612E630042616C6C6F63207375636313
:105120006565646564002F6275696C642F676E75D0
:105130002D746F6F6C732D666F722D73746D3332B7
:105140005F31322E332E72656C312E323032343074
:105150003932362D313731352F7372632F6E6577C3
:105160006C69622F6E65776C69622F6C6962632F60
:105170007374646C69622F6D707265632E630000D6
:1051800005000000190000007D0000000000000084
:105190000080E03779C34143176E05B5B5B8934633
:1051A000F5F93FE9034F384D321D30F94877825AFF
:1051B0003CBF737FDD4F1575000000000000F03F1D
:1051C00000000000000024400000000000005940E2
:1051D0000000000000408F40000000000088C34035
:1051E00000000000006AF8400000000080842E41AA
:1051F00000000000D01263410000000084D79741F6
:105200000000000065CDCD41000000205FA00242FB
:10521000000000E876483742000000A2941A6D4270
:10522000000040E59C30A2420000901EC4BCD64263
:1052300000003426F56B0C430080E03779C341430E
:1052400000A0D8855734764300C84E676DC1AB4384
:10525000003D9160E458E143408CB5781DAF1544A2
:1052600050EFE2D6E41A4B4492D54D06CFF080447D
:10527000F64AE1C7022DB544B49DD9794378EA4492
:105280004300504F534958002E002C2066756E6322
:1052900074696F6E3A2000617373657274696F6E22
:1052A0002022257322206661696C65643A20666954
:1052B0006C6520222573222C206C696E6520256484
:1052C000257325730A000020202020202020202084
:1052D00028282828282020202020202020202020A6
:1052E00020202020202020881010101010101010D6
:1052F000101010101010100404040404040404041A
:1053000004101010101010104141414141410101A1
:10531000010101010101010101010101010101017D
:10532000010110101010101042424242424202028B
:10533000020202020202020202020202020202024D
:1053400002021010101020000000000000000000F9
:10535000000000000000000000000000000000004D
:10536000000000000000000000000000000000003D
:10537000000000000000000000000000000000002D
:10538000000000000000000000000000000000001D
:10539000000000000000000000000000000000000D
:1053A00000000000000000000000000000000000FD
:1053B00000000000000000000000000000000000ED
:1053C00000000000000000232D302B2000686C4CF2
:0853D0000065666745464700D1
:0853D80038AEFF7F0100000068
:0453E000F5010008CB
:0453E400D1010008EB
:1053E8000024F4000100000010000000000000008C
:1053F80003000000680200201C00002000000000DC
:1054080068020020D00200203803002000000000BD
:105418000000000000000000000000000000000084
:105428000000000000000000000000000000000074
:105438000000000000000000000000000000000064
:105448000000000000000000430000000000000011
:105458000000000000000000000000000000000044
:1054680000000000000000004300000000000000F1
:105478000000000000000000000000000000000024
:1054880000000000000000004300000000000000D1
:105498000000000000000000000000000000000004
:1054A80000000000000000004300000000000000B1
:1054B80000000000000000000000000000000000E4
:1054C8000000000000000000430000000000000091
:1054D80000000000000000000000000000000000C4
:1054E8000000000000000000430000000000000071
:1054F80000000000000000000000000000000000A4
:105508000000000000000000430000000000000050
:105518000000000000000000000000000000000083
:105528000000000000000000A14A00087D4A0008B1
:1055380000000000C652000888520008C552000842
:10554800C5520008C5520008C5520008C5520008D7
:10555800C5520008C5520008C5520008C5520008C7
:10556800FFFFFFFFFFFFFFFFFFFFFFFFFFFF000041
:1055780001004153434949000000000000000000B9
:105588000000000000000000000000000000000013
:10559800000041534349490000000000000000009A
:1055A80000000000000000000000000000000000F3
:0455B80000000000EF
:0400000508001721B7
:00000001FF
